:020000040800F2
:100000000000022089040008CF040008D104000881
:10001000D3040008D5040008D7040008000000003D
:10002000000000000000000000000000D9040008EB
:10003000DB04000800000000DD040008DF04000805
:10004000E3040008E5040008E7040008E9040008E8
:10005000EB040008ED040008EF040008F1040008B8
:10006000F3040008F5040008F7040008F904000888
:10007000FB040008FD040008FF0400080105000857
:100080000305000805050008070500080905000824
:100090000B0500080D0500080F05000811050008F4
:1000A00013050008150500081705000819050008C4
:1000B0001B0500081D0500081F0500082105000894
:1000C0002305000825050008270500082905000864
:1000D0002B0500082D0500082F0500083105000834
:1000E0003305000835050008370500083905000804
:1000F0003B0500083D0500083F05000841050008D4
:1001000043050008450500084705000849050008A3
:100110004B0500084D0500084F0500085105000873
:100120005305000855050008570500085905000843
:100130005B05000800000000000000005D050008ED
:100140005F050008610500086305000865050008F3
:1001500067050008690500086B0500086D050008C3
:100160006F05000871050008730500087505000893
:1001700077050008790500087B05000800000000ED
:10018000000000007D0500080000000000000000E5
:100190007F05000800000000000000008105000845
:1001A00000000000000000000000000083050008BF
:1001B0008505000887050008890500088B050008EB
:1001C0008D05000810B5054C237833B9044B13B1E5
:1001D0000448AFF300800123237010BD7008002095
:1001E0000000000014110008084B10B51BB10849AD
:1001F0000848AFF300800848036803B910BD074BF7
:10020000002BFBD0BDE81040184700BF00000000E5
:10021000740800201411000870080020000000007D
:10022000154B002B08BF134B9D46A3F5803A0021C8
:100230008B460F461348144A121A00F051FF0F4B19
:10024000002B00D098470E4B002B00D09847002081
:10025000002104000D000D48002802D00C48AFF327
:10026000008000F017FF2000290000F007F900F0DF
:10027000FDFE00BF0000080000000220000000009A
:10028000000000007008002092080020000000001C
:1002900000000000134A144B106B144940F0020098
:1002A0001063106B40F004001063106B40F001000D
:1002B00010631A68120C12041A601A6842F4AA42F7
:1002C00042F055021A60DA68120C1204DA600A6809
:1002D00022F040620A60CA68002022F04062CA60D0
:1002E0005861704700380240000402400008024094
:1002F0002DE9F84F564BDFF880911A69D9F8005074
:10030000544BC2F3403883F800806DB3013D524E28
:100310003378434522D04E4B504F1B693C7803F451
:10032000005E2246C3F3403300209342014605D0CD
:100330001C46012000211A469342F9D101318AB2AC
:10034000092A11B2F7D9002877D1BEF1000F05D1E3
:10035000434A1388013303F003031380C9F80050A4
:1003600086F80080BDE8F88F3D4BB3F90030032BD1
:1003700006D8DFE803F00D1939023A4B00225A6122
:10038000384B00225A610323C9F800300225BEE72A
:10039000354C344EA4F6080574E9020100F0F6FD70
:1003A000A5427061F8D1EEE72E4E002440F26D15A3
:1003B000204600F0C3FA24A3D3E9002300F024FB75
:1003C00000222A4B00F04AFC1FA3D3E9002300F0CF
:1003D0001BFB0022264B00F063F900F0AFFD053453
:1003E000AC427061E4D1CEE70024224E1D4FA346FB
:1003F0004FF0010A40F26D1504E0C7F814A005346F
:10040000AC42C0D086FB04232344E017C0EBE310CA
:1004100000F094FA0CA3D3E9002300F0F5FA00F001
:10042000D5FD00F09DFA08A3D3E9002300F072FD8A
:100430000028E2D0C7F814B0E1E73C70BEF1000F2D
:1004400086D08BE7AFF30080F1D4C853FB2109407D
:100450000008024091080020900800208C0800202D
:100460008E08002000040240100800200080664032
:100470000000F03FB7600BB60000002008B5FFF7A2
:1004800009FFFFF735FFFCE70649074A074B9A4289
:10049000BEBF51F8040B42F8040BF8E7044880474C
:1004A00004480047201100080000002070080020C8
:1004B00099050008210200083549364A002301E069
:1004C00041F8043B9142FBD3FFF7D8FFFEE7FEE77C
:1004D000FEE7FEE7FEE7FEE7FEE7FEE7FEE7FEE7F4
:1004E000FEE7FEE7FEE7FEE7FEE7FEE7FEE7FEE7E4
:1004F000FEE7FEE7FEE7FEE7FEE7FEE7FEE7FEE7D4
:10050000FEE7FEE7FEE7FEE7FEE7FEE7FEE7FEE7C3
:10051000FEE7FEE7FEE7FEE7FEE7FEE7FEE7FEE7B3
:10052000FEE7FEE7FEE7FEE7FEE7FEE7FEE7FEE7A3
:10053000FEE7FEE7FEE7FEE7FEE7FEE7FEE7FEE793
:10054000FEE7FEE7FEE7FEE7FEE7FEE7FEE7FEE783
:10055000FEE7FEE7FEE7FEE7FEE7FEE7FEE7FEE773
:10056000FEE7FEE7FEE7FEE7FEE7FEE7FEE7FEE763
:10057000FEE7FEE7FEE7FEE7FEE7FEE7FEE7FEE753
:10058000FEE7FEE7FEE7FEE7FEE7FEE7FEE7000028
:10059000700800209208002039493A4BD1F8882091
:1005A000394842F47002C1F888201A68002142F0EC
:1005B00001021A6099601A6822F0847222F4803273
:1005C0001A6058601A6882B022F480221A60D960DA
:1005D000009101911A6842F480321A601A4603E0D1
:1005E000009BB3F5C06F09D0136803F40033019387
:1005F000009B01330093019B002BF1D0214B1B6822
:1006000013F4003318BF01230193019B012B05D084
:100610001B4B4FF000629A6002B07047194B1B49A8
:100620001A6C1B4842F080521A640A6842F48042F5
:100630000A609A689A609A6842F400429A609A68DE
:1006400042F4A0529A6058601A6842F080721A60B0
:100650001A4611680B4B8901FBD50E4A40F2057111
:1006600011609A6822F003029A609A6842F00202CE
:100670009A601A46936803F00C03082BFAD1C7E777
:1006800000ED00E00038024010300024007000400F
:1006900019544007003C024081F0004102E000BFD5
:1006A00083F0004330B54FEA41044FEA430594EA32
:1006B000050F08BF90EA020F1FBF54EA000C55EA6D
:1006C000020C7FEA645C7FEA655C00F0E2804FEA3E
:1006D0005454D4EB5555B8BF6D420CDD2C4480EA20
:1006E000020281EA030382EA000083EA010180EA50
:1006F000020281EA0303362D88BF30BD11F0004F9E
:100700004FEA01314FF4801C4CEA113102D04042D3
:1007100061EB410113F0004F4FEA03334CEA13330E
:1007200002D0524263EB430394EA050F00F0A78026
:10073000A4F10104D5F1200E0DDB02FA0EFC22FA21
:1007400005F2801841F1000103FA0EF2801843FA15
:1007500005F359410EE0A5F120050EF1200E012A06
:1007600003FA0EFC28BF4CF0020C43FA05F3C01844
:1007700051EBE37101F0004507D54FF0000EDCF1BD
:10078000000C7EEB00006EEB0101B1F5801F1BD366
:10079000B1F5001F0CD349085FEA30004FEA3C0C6A
:1007A00004F101044FEA445212F5800F80F09A8060
:1007B000BCF1004F08BF5FEA500C50F1000041EB64
:1007C000045141EA050130BD5FEA4C0C404141EB68
:1007D000010111F4801FA4F10104E9D191F0000F8F
:1007E00004BF01460020B1FA81F308BF2033A3F112
:1007F0000B03B3F120020CDA0C3208DD02F1140C09
:10080000C2F10C0201FA0CF021FA02F10CE002F143
:100810001402D8BFC2F1200C01FA02F120FA0CFC3C
:10082000DCBF41EA0C019040E41AA2BF01EB045185
:10083000294330BD6FEA04041F3C1CDA0C340EDC83
:1008400004F11404C4F1200220FA04F001FA02F3C6
:1008500040EA030021FA04F345EA030130BDC4F184
:100860000C04C4F1200220FA02F001FA04F340EA79
:100870000300294630BD21FA04F0294630BD94F02A
:10088000000F83F4801306BF81F480110134013D11
:100890004EE77FEA645C18BF7FEA655C29D094EA82
:1008A000050F08BF90EA020F05D054EA000C04BF00
:1008B0001946104630BD91EA030F1EBF00210020EB
:1008C00030BD5FEA545C05D14000494128BF41F08A
:1008D000004130BD14F580043CBF01F5801130BDEE
:1008E00001F0004545F0FE4141F470014FF0000079
:1008F00030BD7FEA645C1ABF194610467FEA655C2A
:100900001CBF0B46024650EA013406BF52EA0335CB
:1009100091EA030F41F4002130BD00BF90F0000FB9
:1009200004BF0021704730B54FF4806404F13204F5
:100930004FF000054FF0000150E700BF90F0000FAE
:1009400004BF0021704730B54FF4806404F13204D5
:1009500010F0004548BF40424FF000013EE700BFA5
:1009600042004FEAE2014FEA31014FEA02701FBF35
:1009700012F07F4393F07F4F81F06051704792F007
:10098000000F14BF93F07F4F704730B54FF4607481
:1009900001F0004521F0004120E700BF50EA0102CC
:1009A00008BF704730B54FF000050AE050EA010279
:1009B00008BF704730B511F0004502D5404261EBE9
:1009C00041014FF4806404F132045FEA915C3FF42A
:1009D000DCAE4FF003025FEADC0C18BF03325FEAC3
:1009E000DC0C18BF033202EBDC02C2F1200300FA78
:1009F00003FC20FA02F001FA03FE40EA0E0021FA9D
:100A000002F11444C1E600BF70B54FF0FF0C4CF486
:100A1000E06C1CEA11541DBF1CEA135594EA0C0F3C
:100A200095EA0C0F00F0DEF82C4481EA030621EA77
:100A30004C5123EA4C5350EA013518BF52EA0335B2
:100A400041F4801143F4801338D0A0FB02CE4FF064
:100A50000005E1FB02E506F00042E0FB03E54FF094
:100A60000006E1FB03569CF0000F18BF4EF0010E8C
:100A7000A4F1FF04B6F5007F64F5407404D25FEA88
:100A80004E0E6D4146EB060642EAC62141EA55513B
:100A90004FEAC52040EA5E504FEACE2EB4F1FD0C7D
:100AA00088BFBCF5E06F1ED8BEF1004F08BF5FEAFB
:100AB000500E50F1000041EB045170BD06F00046AD
:100AC00046EA010140EA020081EA0301B4EB5C045A
:100AD000C2BFD4EB0C0541EA045170BD41F4801152
:100AE0004FF0000E013C00F3AB8014F1360FDEBF77
:100AF000002001F0004170BDC4F10004203C35DA53
:100B00000C341BDC04F11404C4F1200500FA05F3D5
:100B100020FA04F001FA05F240EA020001F0004276
:100B200021F0004110EBD37021FA04F642EB0601EC
:100B30005EEA430E08BF20EAD37070BDC4F10C0416
:100B4000C4F1200500FA04F320FA05F001FA04F2DA
:100B500040EA020001F0004110EBD37041F10001C6
:100B60005EEA430E08BF20EAD37070BDC4F12005D1
:100B700000FA05F24EEA020E20FA04F301FA05F239
:100B800043EA020321FA04F001F0004121FA04F2E1
:100B900020EA020000EBD3705EEA430E08BF20EAB1
:100BA000D37070BD94F0000F0FD101F000464000EB
:100BB00041EB010111F4801F08BF013CF7D041EA6D
:100BC000060195F0000F18BF704703F00046520071
:100BD00043EB030313F4801F08BF013DF7D043EA42
:100BE0000603704794EA0C0F0CEA135518BF95EAF8
:100BF0000C0F0CD050EA410618BF52EA4306D1D17F
:100C000081EA030101F000414FF0000070BD50EA9D
:100C1000410606BF1046194652EA430619D094EA27
:100C20000C0F02D150EA013613D195EA0C0F05D111
:100C300052EA03361CBF104619460AD181EA030165
:100C400001F0004141F0FE4141F470014FF000001D
:100C500070BD41F0FE4141F4780170BD70B54FF0B8
:100C6000FF0C4CF4E06C1CEA11541DBF1CEA135538
:100C700094EA0C0F95EA0C0F00F0A7F8A4EB05041A
:100C800081EA030E52EA03354FEA013100F0888011
:100C90004FEA03334FF0805545EA131343EA1263DA
:100CA0004FEA022245EA111545EA10654FEA00268F
:100CB0000EF000419D4208BF964244F1FD0404F548
:100CC000407402D25B084FEA3202B61A65EB0305A4
:100CD0005B084FEA32024FF480104FF4002CB6EB61
:100CE000020E75EB030E22BFB61A754640EA0C00E1
:100CF0005B084FEA3202B6EB020E75EB030E22BF21
:100D0000B61A754640EA5C005B084FEA3202B6EB61
:100D1000020E75EB030E22BFB61A754640EA9C0020
:100D20005B084FEA3202B6EB020E75EB030E22BFF0
:100D3000B61A754640EADC0055EA060E18D04FEAAE
:100D4000051545EA16754FEA06164FEAC30343EA4E
:100D500052734FEAC2025FEA1C1CC0D111F4801F1B
:100D60000BD141EA00014FF000004FF0004CB6E714
:100D700011F4801F04BF01430020B4F1FD0C88BFB3
:100D8000BCF5E06F3FF6AFAEB5EB030C04BFB6EBBE
:100D9000020C5FEA500C50F1000041EB045170BDB1
:100DA0000EF0004E4EEA113114EB5C04C2BFD4EBDE
:100DB0000C0541EA045170BD41F480114FF0000E62
:100DC000013C90E645EA060E8DE60CEA135594EADE
:100DD0000C0F08BF95EA0C0F3FF43BAF94EA0C0FE1
:100DE0000AD150EA01347FF434AF95EA0C0F7FF456
:100DF00025AF104619462CE795EA0C0F06D152EAAA
:100E000003353FF4FDAE1046194622E750EA41068D
:100E100018BF52EA43067FF4C5AE50EA41047FF49E
:100E20000DAF52EA43057FF4EBAE12E74FF0FF3C03
:100E300006E000BF4FF0010C02E000BF4FF0010CD4
:100E40004DF804CD4FEA410C7FEA6C5C4FEA430C4D
:100E500018BF7FEA6C5C1BD001B050EA410C0CBF9C
:100E600052EA430C91EA030F02BF90EA020F0020FE
:100E7000704710F1000F91EA030F58BF994208BF65
:100E800090422CBFD8176FEAE37040F00100704722
:100E90004FEA410C7FEA6C5C02D150EA013C07D179
:100EA0004FEA430C7FEA6C5CD6D152EA033CD3D0C4
:100EB0005DF8040B704700BF8446104662468C46BE
:100EC0001946634600E000BF01B5FFF7B7FF0028F1
:100ED00048BF10F1000F01BD4DF808EDFFF7F4FF1A
:100EE0000CBF012000205DF808FB00BF4DF808EDA5
:100EF000FFF7EAFF34BF012000205DF808FB00BFC8
:100F00004DF808EDFFF7E0FF94BF012000205DF8E9
:100F100008FB00BF4DF808EDFFF7CEFF94BF01209E
:100F200000205DF808FB00BF4DF808EDFFF7C4FF97
:100F300034BF012000205DF808FB00BF4FEA4102EA
:100F400012F5001215D211D56FF47873B3EB62521B
:100F500012D94FEAC12343F0004343EA505311F042
:100F6000004F23FA02F018BF404270474FF00000D4
:100F7000704750EA013005D111F0004008BF6FF012
:100F8000004070474FF00000704700BF4A0011D288
:100F900012F5001211D20DD56FF47873B3EB6252D3
:100FA0000ED44FEAC12343F0004343EA505323FADF
:100FB00002F070474FF00000704750EA013002D154
:100FC0004FF0FF3070474FF0000070474FEA41028A
:100FD000B2F1E04324BFB3F5001CDCF1FE5C0DD997
:100FE00001F0004C4FEAC0024CEA5070B2F1004FE1
:100FF00040EB830008BF20F00100704711F0804FE4
:1010000021D113F13872BCBF01F00040704741F4A8
:1010100080114FEA5252C2F11802C2F1200C10FAAC
:101020000CF320FA02F018BF40F001004FEAC12390
:101030004FEAD32303FA0CFC40EA0C0023FA02F334
:101040004FEA4303CCE77FEA625307D150EA01330A
:101050001EBF4FF0FE4040F44000704701F00040DA
:1010600040F0FE4040F40000704700BF08B5074B59
:10107000044613B10021AFF30080054B1868836A62
:1010800003B19847204600F033F800BF000000008D
:101090001011000870B50E4B0E4CE41AA410002578
:1010A0001E46A54204D056F8253098470135F8E78A
:1010B00000F020F8084C094BE41AA41000251E4645
:1010C000A54204D056F8253098470135F8E770BDA1
:1010D00068080020680800206C08002068080020CC
:1010E00002440346934202D003F8011BFAE770471B
:1010F000FEE70000F8B500BFF8BC08BC9E4670478C
:10110000F8B500BFF8BC08BC9E467047430000001D
:081110000808002000000000A7
:0811180008F1FF7F0100000057
:101120000300000000000000000000000000444038
:101130000000000000804440000000000000454026
:101140000000000000804540000000000000464014
:101150000000000000804640000000000000474002
:1011600000000000008047400000000000004840F0
:1011700000000000008048400000000000004940DE
:1011800000000000008049400000000000004A40CC
:101190000000000000804A400000000000804A403B
:1011A0000000000000004B400000000000804B40A9
:1011B0000000000000004C400000000000804C4097
:1011C0000000000000004D400000000000804D4085
:1011D0000000000000004E400000000000804E4073
:1011E0000000000000804E400000000000004F4062
:1011F0000000000000804F40000000000000504050
:10120000000000000040504000000000004050403E
:1012100000000000008050400000000000C050406E
:10122000000000000000514000000000000051409C
:1012300000000000004051400000000000805140CC
:1012400000000000008051400000000000C051403C
:10125000000000000000524000000000000052406A
:1012600000000000004052400000000000405240DA
:10127000000000000080524000000000008052404A
:101280000000000000C052400000000000C05240BA
:101290000000000000005340000000000000534028
:1012A0000000000000405340000000000040534098
:1012B0000000000000405340000000000080534048
:1012C00000000000008053400000000000805340F8
:1012D0000000000000C053400000000000C0534068
:1012E0000000000000C053400000000000C0534058
:1012F0000000000000C05340000000000000544007
:1013000000000000000054400000000000005440B5
:1013100000000000000054400000000000005440A5
:101320000000000000005440000000000000544095
:101330000000000000005440000000000000544085
:101340000000000000005440000000000000544075
:101350000000000000005440000000000000544065
:101360000000000000C053400000000000C05340D7
:101370000000000000C053400000000000C05340C7
:101380000000000000C053400000000000805340F7
:101390000000000000805340000000000080534027
:1013A0000000000000405340000000000040534097
:1013B00000000000004053400000000000005340C7
:1013C00000000000000053400000000000C0524038
:1013D0000000000000C052400000000000805240A9
:1013E0000000000000805240000000000040524019
:1013F0000000000000405240000000000000524089
:1014000000000000000052400000000000C05140F9
:1014100000000000008051400000000000805140AA
:10142000000000000040514000000000000051405A
:1014300000000000000051400000000000C05040CB
:1014400000000000008050400000000000405040BC
:10145000000000000040504000000000000050402C
:101460000000000000804F400000000000004F40DE
:101470000000000000804E400000000000804E4050
:101480000000000000004E400000000000804D40C1
:101490000000000000004D400000000000804C40B3
:1014A0000000000000004C400000000000804B40A5
:1014B0000000000000004B400000000000804A4097
:1014C0000000000000804A400000000000004A4088
:1014D000000000000080494000000000000049407A
:1014E000000000000080484000000000000048406C
:1014F000000000000080474000000000000047405E
:10150000000000000080464000000000000046404F
:101510000000000000804540000000000000454041
:101520000000000000804440000000000000444033
:101530000000000000804340000000000000434025
:101540000000000000804240000000000000424017
:101550000000000000804140000000000000414009
:1015600000000000008040400000000000004040FB
:101570000000000000003F400000000000003E406E
:101580000000000000003D400000000000003C4062
:101590000000000000003B400000000000003B4055
:1015A0000000000000003A40000000000000394048
:1015B000000000000000384000000000000037403C
:1015C0000000000000003640000000000000354030
:1015D0000000000000003440000000000000334024
:1015E0000000000000003340000000000000324016
:1015F000000000000000314000000000000030400A
:101600000000000000002E400000000000002E40FE
:101610000000000000002C400000000000002A40F4
:1016200000000000000028400000000000002840EA
:1016300000000000000026400000000000002440E0
:1016400000000000000024400000000000002240D4
:1016500000000000000020400000000000002040CA
:101660000000000000001C400000000000001C40C2
:1016700000000000000018400000000000001840BA
:1016800000000000000014400000000000001440B2
:1016900000000000000010400000000000001040AA
:1016A00000000000000008400000000000000840AA
:1016B00000000000000008400000000000000040A2
:1016C000000000000000004000000000000000409A
:1016D000000000000000F03F000000000000F03FAC
:1016E000000000000000F03F000000000000F03F9C
:1016F000000000000000F03F0000000000000000BB
:1017000000000000000000000000000000000000D9
:1017100000000000000000000000000000000000C9
:1017200000000000000000000000000000000000B9
:1017300000000000000000000000000000000000A9
:101740000000000000000000000000000000000099
:101750000000000000000000000000000000000089
:10176000000000000000F03F000000000000F03F1B
:10177000000000000000F03F000000000000F03F0B
:10178000000000000000F03F0000000000000040EA
:1017900000000000000000400000000000000040C9
:1017A00000000000000008400000000000000840A9
:1017B0000000000000000840000000000000104091
:1017C0000000000000001040000000000000144075
:1017D000000000000000144000000000000018405D
:1017E00000000000000018400000000000001C4045
:1017F0000000000000001C4000000000000020402D
:101800000000000000002040000000000000224016
:101810000000000000002440000000000000244000
:1018200000000000000026400000000000002840EA
:1018300000000000000028400000000000002A40D6
:101840000000000000002C400000000000002E40BE
:101850000000000000002E400000000000003040AA
:101860000000000000003140000000000000324095
:101870000000000000003340000000000000334082
:10188000000000000000344000000000000035406F
:10189000000000000000364000000000000037405B
:1018A0000000000000003840000000000000394047
:1018B0000000000000003A400000000000003B4033
:1018C0000000000000003B400000000000003C4021
:1018D0000000000000003D400000000000003E400D
:1018E0000000000000003F400000000000004040F9
:1018F0000000000000804040000000000000414067
:101900000000000000804140000000000000424054
:101910000000000000804240000000000000434042
:1019200000000000008043400000000000000000B4
:1019300000000000000000000000000000000000A7
:1019400000000000000000000C1100080000000072
:101950000000000000000000000000000000000087
:101960000000000000000000000000000000000077
:101970000000000000000000000000000000000067
:101980000000000000000000E9010008C501000897
:0400000508000000EF
:00000001FF
