:020000040800F2
:100000000000022061030008A7030008A9030008FC
:10001000AB030008AD030008AF03000800000000B8
:10002000000000000000000000000000B103000814
:10003000B303000800000000B5030008B703000880
:10004000BB030008BD030008BF030008C10300088C
:10005000C3030008C5030008C7030008C90300085C
:10006000CB030008CD030008CF030008D10300082C
:10007000D3030008D5030008D7030008D9030008FC
:10008000DB030008DD030008DF030008E1030008CC
:10009000E3030008E5030008E7030008E90300089C
:1000A000EB030008ED030008EF030008F10300086C
:1000B000F3030008F5030008F7030008F90300083C
:1000C000FB030008FD030008FF030008010400080B
:1000D00003040008050400080704000809040008D8
:1000E0000B0400080D0400080F04000811040008A8
:1000F0001304000815040008170400081904000878
:100100001B0400081D0400081F0400082104000847
:100110002304000825040008270400082904000817
:100120002B0400082D0400082F04000831040008E7
:10013000330400080000000000000000350400083F
:1001400037040008390400083B0400083D04000897
:100150003F04000841040008430400084504000867
:1001600047040008490400084B0400084D04000837
:100170004F04000851040008530400080000000068
:10018000000000005504000800000000000000000E
:100190005704000800000000000000005904000897
:1001A0000000000000000000000000005B040008E8
:1001B0005D0400085F04000861040008630400088F
:1001C0006504000810B5054C237833B9044B13B10E
:1001D0000448AFF300800123237010BD6C000020A1
:1001E0000000000084060008084B10B51BB1084948
:1001F0000848AFF300800848036803B910BD074BF7
:10020000002BFBD0BDE81040184700BF00000000E5
:1002100070000020840600086C0000200000000030
:10022000154B002B08BF134B9D46A3F5803A0021C8
:100230008B460F461348144A121A00F005FA0F4B6A
:10024000002B00D098470E4B002B00D09847002081
:10025000002104000D000D48002802D00C48AFF327
:10026000008000F0CBF92000290000F071F800F0C8
:10027000B1F900BF000008000000022000000000EB
:10028000000000006C0000208A0000200000000038
:100290000000000080B400AF124A124B1B6B43F009
:1002A00002031363104A104B1B6823F47F5323F09F
:1002B0003F0313600C4A0C4B1B6843F4AA5343F0F2
:1002C00015031360084A084BDB6823F47F5323F0BF
:1002D0003F03D360044B8B225A6100BFBD465DF8DB
:1002E000047B7047003802400004024080B400AF35
:1002F000124B1B68002B17D1114B124A1288114662
:10030000114A32F811205A610E4B1B8801339AB200
:100310000C4B1A800B4B1B8803F003039AB2094B5A
:100320001A80064B094A1A60044B1B68013B034ABA
:10033000136000BFBD465DF8047B704700000020DD
:1003400000040240880000207406000840420F00AC
:1003500080B500AFFFF79EFFFFF7C8FFFCE700BFC7
:100360000649074A074B9A42BEBF51F8040B42F8B0
:10037000040BF8E70448804704480047900600084B
:10038000000000206C000020710400082102000819
:100390003549364A002301E041F8043B9142FBD342
:1003A000FFF7D6FFFEE7FEE7FEE7FEE7FEE7FEE724
:1003B000FEE7FEE7FEE7FEE7FEE7FEE7FEE7FEE715
:1003C000FEE7FEE7FEE7FEE7FEE7FEE7FEE7FEE705
:1003D000FEE7FEE7FEE7FEE7FEE7FEE7FEE7FEE7F5
:1003E000FEE7FEE7FEE7FEE7FEE7FEE7FEE7FEE7E5
:1003F000FEE7FEE7FEE7FEE7FEE7FEE7FEE7FEE7D5
:10040000FEE7FEE7FEE7FEE7FEE7FEE7FEE7FEE7C4
:10041000FEE7FEE7FEE7FEE7FEE7FEE7FEE7FEE7B4
:10042000FEE7FEE7FEE7FEE7FEE7FEE7FEE7FEE7A4
:10043000FEE7FEE7FEE7FEE7FEE7FEE7FEE7FEE794
:10044000FEE7FEE7FEE7FEE7FEE7FEE7FEE7FEE784
:10045000FEE7FEE7FEE7FEE7FEE7FEE7FEE7FEE774
:10046000FEE7FEE7FEE700006C0000208A000020A7
:1004700080B500AF164A164BD3F8883043F47003AA
:10048000C2F88830134A134B1B6843F00103136012
:10049000104B00229A600F4A0E4B1B6823F08473A6
:1004A00023F4803313600B4B0B4A5A60094A094B03
:1004B0001B6823F480231360064B0022DA6000F0EF
:1004C0000DF8034B4FF000629A6000BF80BD00BF83
:1004D00000ED00E0003802401030002480B483B00A
:1004E00000AF00237B6000233B60364A354B1B681E
:1004F00043F480331360334B1B6803F400333B60D9
:100500007B6801337B603B68002B03D17B68B3F5CC
:10051000C06FF0D12B4B1B6803F40033002B02D0CB
:1005200001233B6001E000233B603B68012B42D18B
:10053000244A244B1B6C43F080531364224A224B01
:100540001B6843F4804313601E4A1E4B9B689360F4
:100550001C4A1C4B9B6843F400439360194A194B97
:100560009B6843F4A0539360164B184A5A60154A8F
:10057000144B1B6843F08073136000BF114B1B6862
:1005800003F00073002BF9D0114B40F205721A6092
:100590000C4A0C4B9B6823F003039360094A094BF8
:1005A0009B6843F00203936000BF064B9B6803F017
:1005B0000C03082BF9D100BF0C37BD465DF8047B56
:1005C000704700BF003802400070004019544007D7
:1005D000003C024008B5074B044613B10021AFF3BD
:1005E0000080054B1868836A03B19847204600F0E5
:1005F00033F800BF000000008006000870B50E4B05
:100600000E4CE41AA41000251E46A54204D056F84C
:10061000253098470135F8E700F020F8084C094BE1
:10062000E41AA41000251E46A54204D056F8253031
:1006300098470135F8E770BD640000206400002091
:10064000680000206400002002440346934202D068
:1006500003F8011BFAE77047FEE70000F8B500BF9A
:10066000F8BC08BC9E467047F8B500BFF8BC08BC93
:100670009E4670478B00A300C7008800430000001F
:0806800004000020000000004E
:0806880098FBFF7F0100000058
:1006900040420F00000000000000000000000000C9
:1006A000000000000000000000000000000000004A
:1006B000000000007C0600080000000000000000B0
:1006C000000000000000000000000000000000002A
:1006D000000000000000000000000000000000001A
:1006E000000000000000000000000000000000000A
:0C06F00000000000E9010008C50100083E
:0400000508000000EF
:00000001FF
