:020000040800F2
:100000000000022041040008870400088904000859
:100010008B0400088D0400088F0400080000000015
:100020000000000000000000000000009104000833
:1000300093040008000000009504000897040008DD
:100040009B0400089D0400089F040008A104000808
:10005000A3040008A5040008A7040008A9040008D8
:10006000AB040008AD040008AF040008B1040008A8
:10007000B3040008B5040008B7040008B904000878
:10008000BB040008BD040008BF040008C104000848
:10009000C3040008C5040008C7040008C904000818
:1000A000CB040008CD040008CF040008D1040008E8
:1000B000D3040008D5040008D7040008D9040008B8
:1000C000DB040008DD040008DF040008E104000888
:1000D000E3040008E5040008E7040008E904000858
:1000E000EB040008ED040008EF040008F104000828
:1000F000F3040008F5040008F7040008F9040008F8
:10010000FB040008FD040008FF04000801050008C6
:100110000305000805050008070500080905000893
:100120000B0500080D0500080F0500081105000863
:10013000130500080000000000000000150500087D
:1001400017050008190500081B0500081D05000813
:100150001F050008210500082305000825050008E3
:1001600027050008290500082B0500082D050008B3
:100170002F050008310500083305000800000000C5
:10018000000000003505000800000000000000002D
:1001900037050008000000000000000039050008D5
:1001A0000000000000000000000000003B05000807
:1001B0003D0500083F05000841050008430500080B
:1001C0004505000810B5054C237833B9044B13B12D
:1001D0000448AFF300800123237010BD6C000020A1
:1001E000000000007C070008084B10B51BB108494F
:1001F0000848AFF300800848036803B910BD074BF7
:10020000002BFBD0BDE81040184700BF00000000E5
:10021000700000207C0700086C0000200000000037
:10022000154B002B08BF134B9D46A3F5803A0021C8
:100230008B460F461348144A121A00F075FA0F4BFA
:10024000002B00D098470E4B002B00D09847002081
:10025000002104000D000D48002802D00C48AFF327
:10026000008000F03BFA2000290000F0E1F800F0E7
:1002700021FA00BF0000080000000220000000007A
:10028000000000006C0000208C0000200000000036
:100290000000000080B400AF2C4A2C4B1B6B43F0D5
:1002A00002031363294A294B1B6B43F004031363B6
:1002B000264A264B1B6B43F001031363244A244B4D
:1002C0001B6823F47F5323F03F031360204A204B25
:1002D0001B6843F4AA5343F0150313601C4A1C4BDC
:1002E000DB6823F47F5323F03F03D360194A194B93
:1002F0001B6823F040631360164A164BDB6823F03B
:100300004063D360144A144B1B6823F47F5323F0DB
:100310003F031360104A104B1B6843F4AA5343F089
:10032000150313600C4A0C4BDB6823F47F5323F056
:100330003F03D360064BC0225A61074BFF225A612C
:1003400000BFBD465DF8047B704700BF0038024027
:1003500000040240000802400000024080B483B064
:1003600000AF0123FB712A4B1B6903F40053002BE0
:1003700024D0284B1B68002B1AD1274B00221A804F
:10038000264B274A12881146264A32F811205A6114
:10039000234B1B8801339AB2214B1A80204B1B88B8
:1003A00003F007039AB21E4B1A801A4B1E4A1A60BA
:1003B000184B1B68013B174A136023E0154B1B6861
:1003C000002B1AD1164B00221A80144B124A1288A5
:1003D0001146164A32F811205A610F4B1B8801331F
:1003E0009AB20D4B1A800C4B1B8803F007039AB28C
:1003F000094B1A80074B0C4A1A60064B1B68013BDD
:10040000044A136000BF0C37BD465DF8047B70479B
:100410000008024000000020880000200004024084
:100420008A0000205407000840420F0068070008B7
:1004300080B500AFFFF72EFFFFF790FFFCE700BF8E
:100440000649074A074B9A42BEBF51F8040B42F8CF
:10045000040BF8E704488047044800478807000871
:10046000000000206C000020510500082102000857
:100470003549364A002301E041F8043B9142FBD361
:10048000FFF7D6FFFEE7FEE7FEE7FEE7FEE7FEE743
:10049000FEE7FEE7FEE7FEE7FEE7FEE7FEE7FEE734
:1004A000FEE7FEE7FEE7FEE7FEE7FEE7FEE7FEE724
:1004B000FEE7FEE7FEE7FEE7FEE7FEE7FEE7FEE714
:1004C000FEE7FEE7FEE7FEE7FEE7FEE7FEE7FEE704
:1004D000FEE7FEE7FEE7FEE7FEE7FEE7FEE7FEE7F4
:1004E000FEE7FEE7FEE7FEE7FEE7FEE7FEE7FEE7E4
:1004F000FEE7FEE7FEE7FEE7FEE7FEE7FEE7FEE7D4
:10050000FEE7FEE7FEE7FEE7FEE7FEE7FEE7FEE7C3
:10051000FEE7FEE7FEE7FEE7FEE7FEE7FEE7FEE7B3
:10052000FEE7FEE7FEE7FEE7FEE7FEE7FEE7FEE7A3
:10053000FEE7FEE7FEE7FEE7FEE7FEE7FEE7FEE793
:10054000FEE7FEE7FEE700006C0000208C000020C4
:1005500080B500AF164A164BD3F8883043F47003C9
:10056000C2F88830134A134B1B6843F00103136031
:10057000104B00229A600F4A0E4B1B6823F08473C5
:1005800023F4803313600B4B0B4A5A60094A094B22
:100590001B6823F480231360064B0022DA6000F00E
:1005A0000DF8034B4FF000629A6000BF80BD00BFA2
:1005B00000ED00E0003802401030002480B483B029
:1005C00000AF00237B6000233B60364A354B1B683D
:1005D00043F480331360334B1B6803F400333B60F8
:1005E0007B6801337B603B68002B03D17B68B3F5EC
:1005F000C06FF0D12B4B1B6803F40033002B02D0EB
:1006000001233B6001E000233B603B68012B42D1AA
:10061000244A244B1B6C43F080531364224A224B20
:100620001B6843F4804313601E4A1E4B9B68936013
:100630001C4A1C4B9B6843F400439360194A194BB6
:100640009B6843F4A0539360164B184A5A60154AAE
:10065000144B1B6843F08073136000BF114B1B6881
:1006600003F00073002BF9D0114B40F205721A60B1
:100670000C4A0C4B9B6823F003039360094A094B17
:100680009B6843F00203936000BF064B9B6803F036
:100690000C03082BF9D100BF0C37BD465DF8047B75
:1006A000704700BF003802400070004019544007F6
:1006B000003C024008B5074B044613B10021AFF3DC
:1006C0000080054B1868836A03B19847204600F004
:1006D00033F800BF000000007807000870B50E4B2B
:1006E0000E4CE41AA41000251E46A54204D056F86C
:1006F000253098470135F8E700F020F8084C094B01
:10070000E41AA41000251E46A54204D056F8253050
:1007100098470135F8E770BD6400002064000020B0
:10072000680000206400002002440346934202D087
:1007300003F8011BFAE77047FEE70000F8B500BFB9
:10074000F8BC08BC9E467047F8B500BFF8BC08BCB2
:100750009E467047C000F900A400B00099009200C6
:100760008200F8008000900088008300C600A1008D
:1007700086008E009000430004000020000000006E
:08078000A0FAFF7F0100000058
:1007880040420F00000000000000000000000000D0
:100798000000000000000000000000000000000051
:1007A80000000000760700080000000000000000BC
:1007B8000000000000000000000000000000000031
:1007C8000000000000000000000000000000000021
:1007D8000000000000000000000000000000000011
:0C07E80000000000E9010008C501000845
:0400000508000000EF
:00000001FF
